:020000040800F2
:100000000080002039030008FD02000807030008F3
:1000100000000000000000000000000000000000E0
:100020000000000000000000000000000D030008B8
:100030000000000000000000170300082103000872
:100040008903000889030008890300088903000860
:100050008903000889030008890300088903000850
:100060008903000889030008890300088903000840
:100070008903000889030008890300088903000830
:100080008903000889030008890300088903000820
:100090008903000889030008890300088903000810
:1000A0008903000889030008890300088903000800
:0C00B00089030008890300088903000888
:1000BC0010B5064C2378002B07D1054B002B02D032
:1000CC00044800E000BF0123237010BD0C00002089
:1000DC0000000000D00F0008044B10B5002B03D01B
:1000EC000349044800E000BF10BDC04600000000FA
:1000FC0010000020D00F0008002243088B4274D35C
:10010C0003098B425FD3030A8B4244D3030B8B420C
:10011C0028D3030C8B420DD3FF22090212BA030C15
:10012C008B4202D31212090265D0030B8B4219D3F6
:10013C0000E0090AC30B8B4201D3CB03C01A524116
:10014C00830B8B4201D38B03C01A5241430B8B425E
:10015C0001D34B03C01A5241030B8B4201D30B0347
:10016C00C01A5241C30A8B4201D3CB02C01A52416E
:10017C00830A8B4201D38B02C01A5241430A8B4231
:10018C0001D34B02C01A5241030A8B4201D30B021A
:10019C00C01A5241CDD2C3098B4201D3CB01C01A34
:1001AC00524183098B4201D38B01C01A524143093E
:1001BC008B4201D34B01C01A524103098B4201D32C
:1001CC000B01C01A5241C3088B4201D3CB00C01A99
:1001DC00524183088B4201D38B00C01A5241430811
:1001EC008B4201D34B00C01A5241411A00D2014636
:1001FC00524110467047FFE701B5002000F006F8A9
:10020C0002BDC0460029F7D076E770477047C0465C
:10021C0080B500AF00F0B4F800F001F8FEE790B53F
:10022C0093B000AF14243B19180034231A0000219A
:10023C0000F0C0FE3B1D180010231A00002100F036
:10024C00B9FE21007B1802221A607B180122DA60A9
:10025C007B1810221A617B1800225A627B18180036
:10026C0000F0A6F9031E01D000F019F83B1D07227F
:10027C001A603B1D00225A603B1D00229A603B1DF8
:10028C000022DA603B1D0021180000F017FD031E50
:10029C0001D000F004F8C046BD4613B090BD80B547
:1002AC0000AFC046BD4680BD80B582B000AF0F4BDD
:1002BC009A690E4B01210A439A610C4B9B690122EE
:1002CC0013407B607B68094BDA69084B8021490538
:1002DC000A43DA61054BDA6980235B0513403B6006
:1002EC003B68C046BD4602B080BDC046001002400F
:1002FC0080B500AFC046BD4680BD80B500AFFEE7FF
:10030C0080B500AFC046BD4680BD80B500AFC046CD
:10031C00BD4680BD80B500AF00F07AF8C046BD4642
:10032C0080BD80B500AFC046BD4680BD0D4885463A
:10033C000D480E490E4A002302E0D458C450043331
:10034C00C4188C42F9D30B4A0B4C002301E0136008
:10035C000432A242FBD3FFF7E4FF00F007FEFFF7E5
:10036C0057FFFEE700800020000000200C0000205A
:10037C00201000080C0000202C000020FEE70000DC
:10038C0080B500AF074B1A68064B10210A431A6060
:10039C00002000F009F8FFF787FF00231800BD4686
:1003AC0080BDC0460020024090B583B000AF78609D
:1003BC00144B1C68144B1B781900FA239800FFF798
:1003CC009BFE030019002000FFF796FE03001800A7
:1003DC0000F0E1F8031E01D001230FE07B68032B32
:1003EC000BD8796801235B420022180000F0BEF89C
:1003FC00064B7A681A60002300E001231800BD4602
:10040C0003B090BD00000020080000200400002074
:10041C0080B500AF054B1B781A00054B1B68D21832
:10042C00034B1A60C046BD4680BDC0460800002084
:10043C002800002080B500AF024B1B681800BD4699
:10044C0080BDC0462800002090B583B000AF0200EC
:10045C003960FB1D1A70FB1D1B787F2B28D82F4A87
:10046C00FB1D1B785BB29B08C0339B009B58FA1D8D
:10047C001278110003220A40D200FF2191400A0099
:10048C00D2431A4011003B689B01FF221A40FB1D0E
:10049C001B78180003230340DB009A401F48FB1D08
:1004AC001B785BB29B080A43C0339B001A5031E0A7
:1004BC001B4AFB1D1B7819000F230B40083B9B08A4
:1004CC0006339B00D31804331B68FA1D12781100F5
:1004DC0003220A40D200FF2191400A00D2431A4065
:1004EC0011003B689B01FF221A40FB1D1B78180072
:1004FC0003230340DB009A400948FB1D1B781C00BA
:10050C000F232340083B9B080A4306339B00C31868
:10051C0004331A60C046BD4603B090BD00E100E054
:10052C0000ED00E080B582B000AF78607B68013BE5
:10053C000C4A934201D9012310E00B4B7A68013A23
:10054C005A6001235B4203211800FFF77DFF064B25
:10055C0000229A60044B07221A6000231800BD4643
:10056C0002B080BDFFFFFF0010E000E080B584B05A
:10057C0000AFB9607A600F217B18021C1A70BA6840
:10058C007B181B785BB211001800FFF75DFFC046AB
:10059C00BD4604B080BD80B582B000AF78607B688A
:1005AC001800FFF7BFFF03001800BD4602B080BD66
:1005BC0080B588B000AF78607B68002B02D1012336
:1005CC0000F076FB7B681B680122134000D18EE0A3
:1005DC00C54B5B680C221340042B0ED0C24B5B68DE
:1005EC000C221340082B17D1BF4B5A68C0235B0257
:1005FC001A4080235B029A420ED1BB4B1A688023AF
:10060C009B02134000D171E07B685B68002B00D02B
:10061C006CE0012300F04CFB7B685B68012B07D17D
:10062C00B14B1A68B04B802149020A431A602FE083
:10063C007B685B68002B0CD1AB4B1A68AA4BAB499F
:10064C000A401A60A84B1A68A74BA9490A401A60BD
:10065C001EE07B685B68052B0ED1A34B1A68A24B7E
:10066C008021C9020A431A609F4B1A689E4B802155
:10067C0049020A431A600BE09B4B1A689A4B9B4940
:10068C000A401A60984B1A68974B99490A401A60AD
:10069C007B685B68002B14D0FFF7CCFE0300BB61BA
:1006AC0008E0FFF7C7FE0200BB69D31A642B01D91F
:1006BC000323FDE28C4B1A6880239B021340F0D07D
:1006CC0015E0FFF7B7FE0300BB6108E0FFF7B2FED1
:1006DC000200BB69D31A642B01D90323E8E2824BD5
:1006EC001A6880239B021340F0D100E0C0467B685F
:1006FC001B680222134000D16CE07B4B5B680C2220
:10070C0013400ED0784B5B680C221340082B1FD182
:10071C00754B5A68C0235B021A4080231B029A4215
:10072C0016D1714B1B680222134005D07B68DB6825
:10073C00012B01D00123BBE26B4B1B68F8229343C6
:10074C0019007B681B69DA00674B0A431A6041E0A9
:10075C007B68DB68002B24D0634B1A68624B012149
:10076C000A431A60FFF766FE0300BB6108E0FFF75F
:10077C0061FE0200BB69D31A022B01D9032397E255
:10078C00594B1B6802221340F1D0574B1B68F822BF
:10079C00934319007B681B69DA00534B0A431A60B8
:1007AC0018E0514B1A68504B01218A431A60FFF72D
:1007BC0041FE0300BB6108E0FFF73CFE0200BB6991
:1007CC00D31A022B01D9032372E2474B1B68022276
:1007DC001340F1D17B681B680822134036D07B682C
:1007EC00DB69002B19D0404B5A6A3F4B01210A435D
:1007FC005A62FFF71FFE0300BB6108E0FFF71AFE09
:10080C000200BB69D31A022B01D9032350E2364BE9
:10081C005B6A02221340F1D018E0334B5A6A324B18
:10082C0001218A435A62FFF705FE0300BB6108E011
:10083C00FFF700FE0200BB69D31A022B01D9032378
:10084C0036E2294B5B6A02221340F1D17B681B68AC
:10085C000422134000D1B5E01F23FB1800221A70AC
:10086C00214BDA6980235B05134011D11E4BDA69E9
:10087C001D4B802149050A43DA611B4BDA69802341
:10088C005B051340FB60FB681F23FB1801221A70E9
:10089C00184B1A6880235B0013401AD1154B1A6849
:1008AC00144B802149000A431A60FFF7C3FD030073
:1008BC00BB6108E0FFF7BEFD0200BB69D31A642BD5
:1008CC0001D90323F4E10B4B1A6880235B0013401E
:1008DC00F0D07B689B68012B0ED1034B1A6A024B3C
:1008EC0001210A431A6235E000100240FFFFFEFFAF
:1008FC00FFFFFBFF007000407B689B68002B0CD156
:10090C00CA4B1A6AC94B01218A431A62C74B1A6A2D
:10091C00C64B04218A431A621CE07B689B68052B3A
:10092C000CD1C24B1A6AC14B04210A431A62BF4B49
:10093C001A6ABE4B01210A431A620BE0BB4B1A6ABE
:10094C00BA4B01218A431A62B84B1A6AB74B04217D
:10095C008A431A627B689B68002B14D0FFF76AFDF0
:10096C000300BB6109E0FFF765FD0200BB69D31A08
:10097C00AF4A934201D903239AE1AC4B1B6A022282
:10098C001340F0D013E0FFF755FD0300BB6109E005
:10099C00FFF750FD0200BB69D31AA54A934201D957
:1009AC00032385E1A14B1B6A02221340F0D11F23C4
:1009BC00FB181B78012B05D19C4BDA699B4B9D498D
:1009CC000A40DA617B681B681022134063D07B6895
:1009DC005B69012B2AD1954B5A6B944B04210A432A
:1009EC005A63924B5A6B914B01210A435A63FFF79E
:1009FC0021FD0300BB6108E0FFF71CFD0200BB6991
:100A0C00D31A022B01D9032352E1884B5B6B0222D0
:100A1C001340F1D0854B5B6BF822934319007B6834
:100A2C009B69DA00814B0A435A6334E07B685B694B
:100A3C00053311D17D4B5A6B7C4B04218A435A638D
:100A4C007A4B5B6BF822934319007B689B69DA0045
:100A5C00764B0A435A631EE0744B5A6B734B04215A
:100A6C000A435A63714B5A6B704B01218A435A6388
:100A7C00FFF7E0FC0300BB6108E0FFF7DBFC0200C2
:100A8C00BB69D31A022B01D9032311E1674B5B6BB2
:100A9C0002221340F1D17B681B68202213405CD0EA
:100AAC00624B5B680C2213400C2B0ED05F4B5B68C7
:100ABC000C221340082B14D15C4B5A68C0235B02E8
:100ACC001A40C0235B029A420BD1584B5A6B8023BD
:100ADC005B02134040D07B681B6A012B3CD0012386
:100AEC00E6E07B681B6A002B1BD0504B5A6B4F4BBC
:100AFC00802149020A435A63FFF79CFC0300BB6147
:100B0C0008E0FFF797FC0200BB69D31A022B01D94E
:100B1C000323CDE0454B5A6B80235B021340F0D08E
:100B2C001BE0424B5A6B414B43490A405A63FFF757
:100B3C0081FC0300BB6108E0FFF77CFC0200BB6991
:100B4C00D31A022B01D90323B2E0384B5A6B802302
:100B5C005B021340F0D100E0C0467B685B6A002B5F
:100B6C0000D1A4E0314B5B680C221340082B00D160
:100B7C0078E07B685B6A022B4CD12C4B1A682B4BB0
:100B8C002E490A401A60FFF755FC0300BB6108E0D0
:100B9C00FFF750FC0200BB69D31A022B01D90323C7
:100BAC0086E0224B1A6880239B041340F0D11F4B24
:100BBC00DB6A0F22934319007B681A6B1B4B0A43A9
:100BCC00DA621A4B5B681E4A134019007B68DA6ABA
:100BDC007B689B6A1A43154B0A435A60134B1A687D
:100BEC00124B802149040A431A60FFF723FC0300CF
:100BFC00BB6108E0FFF71EFC0200BB69D31A022B95
:100C0C0001D9032354E0094B1A6880239B04134039
:100C1C00F0D04CE0054B1A68044B08490A401A60A6
:100C2C00FFF708FC0300BB6115E0C0460010024052
:100C3C0088130000FFFFFFEFFFFFFEFFFFFFFFFE2B
:100C4C00FF7FC2FFFFF7F6FB0200BB69D31A022B32
:100C5C0001D903232CE0184B1A6880239B04134002
:100C6C00F0D124E07B685B6A012B01D101231FE0EA
:100C7C00114B5B687B61104BDB6A3B617A69C0236B
:100C8C005B021A407B689B6A9A420ED13B690F2229
:100C9C001A407B681B6B9A4207D17A69F0239B033D
:100CAC001A407B68DB6A9A4201D0012300E00023E2
:100CBC001800BD4608B080BD0010024080B584B05D
:100CCC0000AF786039607B68002B01D10123BFE055
:100CDC00614B1B68012213403A689A4211D95E4B52
:100CEC001B680122934319005B4B3A680A431A6054
:100CFC00594B1B68012213403A689A4201D00123D8
:100D0C00A6E07B681B680222134015D07B681B6829
:100D1C000422134006D0514B5A68504BE021C900B5
:100D2C000A435A604D4B5B68F022934319007B6871
:100D3C009A684A4B0A435A607B681B68012213402D
:100D4C004CD07B685B68012B07D1444B1A6880231D
:100D5C009B02134020D101237AE07B685B68022B55
:100D6C0007D13E4B1A6880239B04134014D10123F6
:100D7C006EE07B685B68032B07D1384B5A6B802382
:100D8C005B02134008D1012362E0344B1B68022242
:100D9C00134001D101235BE0304B5B68032293438A
:100DAC0019007B685A682D4B0A435A60FFF742FBC7
:100DBC000300FB6009E0FFF73DFB0200FB68D31A60
:100DCC00274A934201D9032342E0244B5B680C224F
:100DDC001A407B685B689B009A42ECD11E4B1B68E7
:100DEC00012213403A689A4211D21B4B1B68012214
:100DFC0093431900184B3A680A431A60164B1B6848
:100E0C00012213403A689A4201D0012320E07B680A
:100E1C001B680422134009D0104B5B68114A134025
:100E2C0019007B68DA680D4B0A435A6000F020F811
:100E3C0001000A4B5B681B090F2213400A4AD35C62
:100E4C000A00DA40094B1A600020FFF7ADFA0023C4
:100E5C001800BD4604B080BD0020024000100240C6
:100E6C0088130000FFF8FFFF0810000800000020A6
:100E7C0090B58FB000AF1423FB18374A13CA13C3B5
:100E8C0012681A603B1D354A13CA13C312681A60E4
:100E9C000023FB620023BB6200237B6300237B6285
:100EAC0000233B632E4B5B68FB62FB6A0C221340F6
:100EBC00082B06D00C2B43D0042B44D1294B3B637D
:100ECC0044E0FB6A9B0C0F2213401422BA18D35C2B
:100EDC007B62234BDB6A0F2213403A1DD35CBB624F
:100EEC00FA6AC0235B021A4080235B029A4209D142
:100EFC00B96A1C48FFF700F903001A007B6A5343D8
:100F0C007B631AE0FA6AC0235B021A40C0235B02BF
:100F1C009A4209D1B96A1448FFF7EEF803001A0097
:100F2C007B6A53437B6308E0B96A0E48FFF7E4F829
:100F3C0003001A007B6A53437B637B6B3B6305E0C6
:100F4C00094B3B6302E0074B3B63C0463B6B18000D
:100F5C00BD460FB090BDC046E80F0008F80F000862
:100F6C000010024000127A00006CDC0270B5002602
:100F7C000C4D0D4C641BA410A64209D1002600F0A8
:100F8C0021F80A4D0A4C641BA410A64205D170BD71
:100F9C00B300EB5898470136EEE7B300EB5898478F
:100FAC000136F2E718100008181000081810000895
:100FBC001C10000803001218934200D170471970DE
:100FCC000133F9E7F8B5C046F8BC08BC9E4670473B
:0C0FDC00F8B5C046F8BC08BC9E46704743
:100FE80002030405060708090A0B0C0D0E0F101062
:100FF8000102030405060708090A0B0C0D0E0F1061
:1010080000000000000000000102030406070809B0
:04101800E5000008E7
:04101C00BD0000080B
:0C10200000127A00040000000100000033
:0400000508000339B3
:00000001FF
